:100000000C94530A0C9433070C943E070C94530A37
:100010000C94530A0C94530A0C9449070C94C5078A
:100020000C94530A0C942F070C945B190C94BC0885
:100030000C94530A0C94530A0C9437080C94530AEA
:100040000C94530A0C94530A0C94530A0C94530ABC
:100050000C94530AC0E6A895A091F101AC3211F0BE
:100060000E94170D15FD0E942C0C40FC97D212FD2A
:1000700015C056FE08C0AF81A695A35508F0AFEF96
:100080007A2EA093A500A6FE08C0AE81A695A35522
:1000900008F0AFEFCA2EA093A501DCCF1B7FA8E923
:1000A000AAB92B892F5F2B8B1BF42A8423942A86D1
:1000B00020FF8FC102FDF5C0FF27E0E620A521A4A7
:1000C00002A4A1E02A0F20A728F42A0E21A610F4EA
:1000D000039402A6A22FA770A73019F4A3A5A39595
:1000E000A3A7E0E6A6A9AA2391F018D186F4A4A9B3
:1000F000BA1BA5A9BA1758F0039404AAA7A9FF230D
:1001000029F0F0E0B7A9AB17F1E009F045D5A2ADB1
:100110002A2EA37031F1A0A9A0FD0AC021AD22FCB6
:100120002091FB0123FC20910D022223B9F007C08E
:1001300020AD25FC2091FD0126FC20910D02A22D71
:10014000EDD07EF4A3ADBA1BB21758F0039403AE02
:10015000A0A9A0FF03C0A0A9AE7F02C0A0A9A16072
:10016000A0ABE3E9E75FEB3B08F095C0A7812A2E3F
:10017000A370A9F4A22DAC70AC3029F4B1E0FB2738
:100180002081FB2708C0A83019F420910D0203C07C
:10019000A43041F7FDD024FC07D12083E3CFA22D6A
:1001A000A076A03629F4B1E0FB272381FB270BC002
:1001B000A03419F420910D0206C0A03219F4E8D041
:1001C000202D01C0238127FCEFD0A22DA7D056F609
:1001D000A085BA1BB21730F203940086A22DAC7032
:1001E000AC3029F4B1E0FB272181FB270AC0A830FD
:1001F00019F420910D0205C0A43011F4C9D001C03A
:10020000218124FCD1D02183A081C481C03818F47D
:10021000AC0FB0F102C0AC0F50F4C03818F0C1817F
:10022000AC1728F0C281AC1758F5A0839BCFA181F1
:10023000A083A581AC3F09F495CFAD3F19F4A2810D
:10024000A08390CFAE3F41F4EF93E0E9A081B6E008
:10025000AB27A083EF9102C0AF3F21F4A481A19509
:10026000A48380CFFF2351F0F0E0B581AB17F1E01C
:1002700031F0F0E0B681AB17F1E009F08DD472CF28
:10028000A281A083A681AC3F09F46CCFAD3FD1F62B
:10029000A181A08367CFFF2311F4F1E022CFC0E654
:1002A00058D0A9A9B52DBE70AB1779F053FE02C086
:1002B000A1E003C0AB2FA670A695F894E8B3EF7049
:1002C00019F4B9AB0C7F0A2B7894AAA9BA2DBE7089
:1002D000AB1709F410C0A3FE02C0A1E003C0AB2F0E
:1002E000A670A695A295F894E8B3EF7019F4BAAB8E
:1002F0000F7C0A2B789441FE0AC0AE81AE3138F0F3
:10030000ADEF4A22ABA1AD7FABA3AFA545D40E9410
:100310003E0D0E94FE0A0E94DC0A9CCEA370A13012
:1003200019F4B091880010C0A23041F4B091880057
:10033000B770B73061F4B0918B0006C0B0918800FF
:10034000BB2329F4B091890068940B2E0895E8949A
:1003500008954BA0FF27E0E85088648C75A026A57F
:10036000293008F429E0822E27A9223308F422E359
:10037000922EF395A088B48CC5A026A5293008F448
:1003800029E0D22E27A9223308F422E3E22E089591
:10039000FF93EF93EC59E695E695F1E0E850219153
:1003A0000080EF91FF910895FF93EF93EC59E6954C
:1003B000E53008F0EA95BE2FECEEFFE1EB0FC895B3
:1003C000B02D3196C895021A0B0E202DEF91FF919A
:1003D0000895AB89A1FF42C017FF2EC0A091200253
:1003E000A63041F0AAA1A43010F00C943B0BA395C9
:1003F000AAA322C0DAA3D0932002D0931402ADE9BD
:100400000E94030DA0E40E94030DA4E006FDAAE0F3
:100410002A2E2A2F2A5F0E94030DE22DF0E0A191DF
:10042000F2FCAA270E94030DE217C8F3A091140260
:100430000E94030DA0E40A270C94081818F4FFEF9B
:10044000F88BA6D1E989E83218F4FFEFF98BA0D137
:10045000F1FE04C0ADEFFA22ACA19ED3AB89AF731D
:10046000A43019F4ED8594D1F5CDAB89AE70A630EA
:1004700009F04BC0AC89AA23F9F0A13021F02A84FD
:10048000AD89A215C9F426E72DA72BE72EA764D3C3
:10049000AC8B24E12DA728E72EA75ED32A842A0E51
:1004A0002D8A2CE82DA728EB2EA756D3A0938401E4
:1004B000A88DA03809F4A6D045FCCCCDA1EFA5BBF2
:1004C000AFE0A4BB00000000A3B3AF60A09539F07B
:1004D000B985BA27BB2319F0B885BA2BB887A98785
:1004E000D5BBAFEFA4BBA885D887A03111F4E42F0A
:1004F0004FD1A03211F4E62F4BD1A03411F4E32FE9
:1005000047D1A03811F4E52F43D1AB89AE73A632A1
:1005100009F0A0CD02FF04C031E041E061E051E00C
:10052000AB81A53808F434C0E92DF0910502AB8504
:10053000FA1B08F4FF2715D7A4E0B52DB770B73024
:1005400009F0AA0FB0E03AD70024B82DFB1B08F041
:100550000F2EEE2DF0910602AC85FA1B08F4FF2752
:1005600000D7A4E0BA2DB770B73009F0AA0FB0E0F9
:1005700025D7B82DFB1B08F00F0EF894009204024B
:10058000789413FD67CDA8B3AF7009F4C8D262CDDB
:10059000AAECACD6ABE6AAD60C94430BAC8DBD8DC1
:1005A000EE8DFF8D14FD04C0AE1BBF0BFB2F02C0F0
:1005B000EA1BFB0BF23008F40895F63008F00895BA
:1005C000A0E11A27A6E9B0910D02BA0F9E1418F007
:1005D0009A2EEB2E02C09B2EEA2E9092B700E0924C
:1005E000B7010895FFCFBF93B0E8B8BFB4B5BA0F55
:1005F000B395B3BDB8B7B078E9F3BF910895DC8B7C
:10060000A88DAB8F0C7CA2D7D7D745D7A2E0EBDF64
:10061000A3E01A2BA1E0C0D2BC89BB2311F0AB2F01
:100620000DC0A88D11601D7FAF3719F0BFEE4B22B2
:1006300005C0B0E14B2AA091F5011D7F2BEFF222FE
:10064000B12FB370BDA3BB27A63739F4ABE0A4D25A
:1006500011FF02C0ACE0A0D283C0A73739F4A3E0F9
:100660009BD211FF02C0A4E097D27AC0A83739F418
:10067000A5E092D211FF02C0A8E08ED271C0A937C6
:1006800039F4ADE089D211FF02C0A1E285D268C081
:10069000AA3739F4AEE080D211FF02C0A2E07CD2CA
:1006A0005FC024E0F22AAB3719F4AFE075D258C02E
:1006B000AC3759F4A0E4ABA3A7E410FDA8AB11FD3F
:1006C000A0939001A7E168D24BC0AD3709F4F4CFF5
:1006D000AE3759F4A7E610FDA8AB11FDA093900129
:1006E000A2E25AD2A4E0ABA33BC02BEFF222A03887
:1006F00019F4A1E0AC8B49C0A13819F4A0E24CD2A6
:100700002FC0A23819F4A2E147D22AC0A33819F4A5
:10071000A8E142D225C0A43819F4ACE13DD220C0F2
:1007200024E0F22AA73878F4A5E04A2EABA3A4E18E
:1007300033D211FF02C0A5E12FD2A88DA53881F0D8
:10074000A3E22AD20DC0A73819F4A6E125D208C029
:10075000A057AE3120F40E94EE0CA02D1DD200C097
:1007600011FD07C0B3E01B27AB8D44FCA091F6013F
:1007700065CFA3E0ADA31A2BECDD1F7E8D1429F409
:10078000E91419F008F0106100C0A2E0AD870895E7
:10079000E83210F0A0E56FC7FF27EE0FA0E7EA0FE1
:1007A000BCE1FB1FC895A02DE395C895F02DEA2F5D
:1007B000A0918201B0918301099508950895A6E75B
:1007C000A98FA091F301AA8FA091F701A88F8ED5D0
:1007D000A5E084D514DF61E030E141E15AE00895FD
:1007E000ACEF84D5F1E0EC814DD5F5E0ED814AD553
:1007F000ACADAF3F61F0AFE0A09385016FD5F5E4FC
:10080000E62DEB59E53608F0EE2756D50895A09170
:100810008501AA2321F0A5E061D5D0938501089533
:10082000AEE0AA8FA7E0A88FA98F60D5A6E056D525
:1008300054E038E049E063E0A1E0AD870895A88D79
:10084000BA8DAB1720F4A395A88F50D50895A98D24
:10085000FBCFA88DB98DAB1721F0AA95A88F46D5EF
:100860000895AA8DFBCFA88DBA8DAB1728F4A39558
:10087000A88F3CD5C4DE0895A98DFACFA88DB98D77
:10088000AB1729F0AA95A88F31D5B9DE0895AA8DA6
:10089000FACFA88DA73021F4B2D0A6EFBFD063C0A5
:1008A000A83069F4A3EF22D5A6E7A98FA091F5019E
:1008B000A88F1CD5AEE7AA8F6BE05AE00895A93047
:1008C00049F4AB8DA093F7010A2EBB27ABE00E9441
:1008D000F90CA4C0AA3071F4ACEC08D5ABE6A98F32
:1008E000A091F401A659A88F01D5ADE6AA8F66E0C4
:1008F0005AE00895AB30A9F40C949518030D0E94AA
:10090000170DAAE070DE15FF04C0E0912002E5306B
:1009100011F0A4E0B0D6A6E0A09320021068A8EFE2
:1009200004C0AC3061F43ED6A7EFE0D4A4E6DED438
:10093000A4E0D4D460E030E040E050E014C00C9477
:10094000A11826D62FD60C943B0DAE3061F4A2ED43
:10095000A98FA88FCBD4A9E6C9D4A9EDAA8F67E047
:1009600038E049E054E00895A88DA093F501A4EF84
:10097000BDD4A6E7A98FA091F601A88FB7D4AEE7A2
:10098000AA8F6CE05AE00895A88DA093F601AFE716
:10099000A88FAB8F34DE42D00895A88DAA56A093BD
:1009A000F4013CC0A4E6A2D4288D225DA8EFB1E0FA
:1009B000A20FEC91E093000243D0ECEEFFE1220F96
:1009C000E20FC89500920102E395C89500920202D9
:1009D00054E064E0E88DE63D19F03DE04EE0089516
:1009E0003EE04DE00895288D225DA8EFB1E0A20F12
:1009F000209100022C93A83F09F401D00895D093D0
:100A0000A400D093A401A7E2A093A300A093A30104
:100A1000A091F801ACAFA0939C010895AB8DAB8F72
:100A2000A88F64D4A5E05AD4A091F301AA8FA6E7B9
:100A3000A98FA2E0AD8730E141E161E05AE008957D
:100A4000E0910002F88DF23D09F4EB59F43D09F410
:100A5000EB59F63D29F4AE2FBB27FEE0E6EAAED413
:100A6000F9E02AD40895E0910002FAE0E43608F4AF
:100A7000F5E0EA3008F4F1E0EF0F48F0B09102023F
:100A8000EB1728F4E0930002DBDFADDF0895E0917F
:100A90000202F8CFE0910002FAE0EE3608F4F5E049
:100AA000EF3008F4F1E0EF1B90F3B0910102EB1787
:100AB00048F7E0910102E6CFACE8B0E02C91B1E05C
:100AC0002D93A03CD0F30895ACE8B1E02C91B0E0B8
:100AD0002D93A03CD0F30895ACE8B0E02C91B1E0A8
:100AE0002C902C93B0E02D92A03CC0F30895E0919F
:100AF0008001F0918101C0D30895E0918001F091CF
:100B00008101DAD30895A0918001F0D30895F09186
:100B1000800172D30895E09180016ED30895A1E021
:100B2000A7B9ABECA6B9186008952F93CF93C1E68F
:100B300029912795A795C836D8F3C0E62A89269526
:100B4000A20F26B32295A20F2CB5A20FA2FFA29549
:100B5000AA8BCF912F910895BF932F93EF93FF937B
:100B6000ADE8BB272D91BC91FB2FF21B10F4AFE039
:100B700082D5F395EFEF0AD4D8DFFE2FEA2F06D403
:100B8000E20FEB1709F0C0F7AE2FFF91EF912F9115
:100B9000BF910895FFCF5ECAEF93FF93CF93E0918B
:100BA0000702EE2319F0EA2FFDE086D3A03838F0D3
:100BB000A03CC0F1A03E10F0AAE05DC56AC0FCE117
:100BC000EEE3EA0FC895E0E00E16F0E208F4F2E278
:100BD000E0E022278894001C221FE00DF21FB2E003
:100BE000A8E1C8950D92C02DC07ECC2309F47BC02E
:100BF000C02DC07FC0352C2F61F0C07EC03239F4CB
:100C0000C02DCC71C695C695C3952C2E03C0C1E0EE
:100C100001C0C2E03196C8950D92CA95D9F73196B8
:100C200066D0DDCFC0E40C2EA03A30F0C0E20C2E2E
:100C3000C1E0CFBBA05A02C0DFBBA056AEBBE09A5A
:100C4000EDB3E00DB2E0A8E1EEBBE09A0DB20D927B
:100C5000C02DC07ECC2309F446C0C02DC07FC03556
:100C60002C2F61F0C07EC03239F4C02DCC71C695F6
:100C7000C695C3952C2E03C0C1E001C0C2E0E39528
:100C8000EEBBE09A0DB20D92CA95C9F730D0E3954C
:100C9000D9CFA05CF1E0E0EDEA0FE081FF27C0ECE6
:100CA000EC0FFD1FB2E0A8E100800D92C02DC07EC8
:100CB000CC23C9F0C02DC07FC0352C2F61F0C07E81
:100CC000C03239F4C02DCC71C695C695C3952C2E73
:100CD00003C0C1E001C0C2E0319601900D92CA95F7
:100CE000E1F705D0DFCFCF91FF91EF910895EF931A
:100CF000FF932F932F92E894E0918500EE2309F45F
:100D0000A0C0E0FF6894A8E1B2E0CC91C7FD84C028
:100D1000C07EC03409F41FC0C03209F466C0CC9153
:100D2000C4FF18C0CD91C3702C2EAC91B22DAC383D
:100D3000BD0728F0A03CBD0710F40EF4B1E0CC9143
:100D4000ACE8B0E00EF4B1E0AC91AC1711F4A2E065
:100D5000FA2A70C06FC0CC91CC712C2FCD91C3708A
:100D60002C2EAC91B22DAC38BD0728F0A03CBD07AD
:100D700010F40EF4B1E0C22FC03009F423C0C43027
:100D800009F427C0C83009F42BC0CC3009F414C0D2
:100D90002D9120901A02C03111F4220D09C0C431E6
:100DA00011F4222105C0C83111F4222901C02225E5
:100DB000A150BD0B2C933EC02A2FCEDE2A2EA22F8F
:100DC0002C9238C02C91BB270EF4B395ACE82C9331
:100DD00031C0FF270EF4F395ECE820812C932AC054
:100DE0002C91889427952C9325C0CD912C2FC370DE
:100DF0002C2EED91F22DEC38FD0728F0E03CFD079C
:100E000010F40EF4F1E0C22FCC71C695C6952D9169
:100E10002193CA95E1F70EC0FF27ED91E6FDF1E0C1
:100E2000EF73E058EC38FD0710F00EF4F1E0CC91D0
:100E3000C08300C036F0C0918500C1FF02C0689435
:100E400062CF2F902F91FF91EF910895EEEAF0E09D
:100E5000A8E0A083F1E0A083A4E0ABA308951FB6AF
:100E600014601FBE18951FB67BB770787BBF70E407
:100E70007ABF7CB58DB589BD78BDD2C01FB67BB7B2
:100E800070747BBF70E87ABF7CB58DB58BBD7ABDC1
:100E900051C01FB654FC06C0C29B0AC0C29843FC96
:100EA000C19803C0C39B04C0C39800FF0CC05AC0C4
:100EB00054FC06C0C39B17C0C39843FCC09803C032
:100EC000C29B11C0C29853FE02C073E007277CB5D5
:100ED0008DB570937C0080937D0070E081E09091EF
:100EE0000402890F48C003FF10C0077F969843FC97
:100EF000959813FD05C071E077B97BEC76B9186061
:100F00007091090280910A0236C0969908C0969A9B
:100F100043FC959A70910B0280910C022CC055FEF7
:100F200009C057FC05C070E87ABF7BB770687BBF0B
:100F30001FBE189550FE1DC042FC04C007FD19C01D
:100F400001FF08C0086054FCC39A54FEC29A43FCD7
:100F5000C19A0FC050FE0DC042FC04C007FD09C07D
:100F600000FF07C0086054FCC29A54FEC39A43FCB9
:100F7000C09A792D8D2F9AB53BB4970F381E3BBC84
:100F80009ABD70E178BF1FBE18951FB643FC25C0FF
:100F9000A4FC04C0C09B08C0C09803C0C19B04C08F
:100FA000C19804FF0AC052C0A4FC04C0C19B15C074
:100FB000C19803C0C09B11C0C098A3FE02C070E3DB
:100FC00007277CB58DB570937E0080937F0070E01D
:100FD00081E090910402890F40C007FF0EC00F7797
:100FE000959813FD05C071E077B97BEC76B9186070
:100FF00070910E0280910F0230C0959906C0959AAB
:10100000709110028091110228C0A5FE09C0A7FCB2
:1010100005C070E47ABF7BB770647BBF1FBE1895B4
:10102000A0FE19C042FC04C003FD15C005FF06C0A8
:101030000068A4FCC19AA4FEC09A0DC0A0FE0BC01B
:1010400042FC04C003FD07C004FF05C00068A4FC07
:10105000C09AA4FEC19A7E2D8D2F98B539B4970FF2
:10106000381E39BC98BD78E078BF1FBE18951FB6F2
:10107000CF93C7B1C05A84B195B19695879596958F
:101080008795C43648F477B19881980F9795C13603
:1010900009F4F3FE988319C0C63670F49881891755
:1010A000A1F020F0981B9F3F81F003C0981B913066
:1010B00061F0F0FE888309C0888346FE06C0C7360B
:1010C00021F4CA958881C395888377B1739573FDA0
:1010D00006C077B97CEC76B9CF911FBE1895949B6A
:1010E00006C0949874E070930802709100057FB96F
:1010F000177FCF911FBE18951FB6709108027530EB
:10110000C0F57723B1F17A957093080291F17230AE
:1011100029F05CF1709101057FB92CC0949A000010
:10112000949870910502872D0F921F92789F1094CA
:10113000912D9F70929590930105912D907F92959E
:10114000906A90930005709106028C2D789F109400
:10115000912D9F70929590930305912D907F92957C
:1011600090699FB91F900F9005C0709103057FB9DA
:1011700001C0949A1FBE18951FB6EF93FF9315FDFB
:101180001FC08BB18871E1F47CB180911302782784
:10119000F2E0E091F201EC3298F47193E093F20105
:1011A000E13221F472957F707093120270911202F5
:1011B0007F5DE71708F01062FF91EF911FBE189551
:1011C0001066A8E1AAB9F8CFB4E0A0E3A5BBAA9A3B
:1011D0000000AA98A2E207DABA95B9F7A0E2A5BB87
:1011E000AA9A0000AA98A2E2FED9F8E205D0FCE093
:1011F00003D0F1E001D0089523D0BF93AB98AA9A11
:10120000BF2FB07FB460B5BBAA980000AA9AF29530
:10121000F07FF460F5BBAA98BF91089511D0BF93F9
:10122000AB9AAA9ABE2FB07FBC60B5BBAA9800004B
:10123000AA9AE295E07FEC60E5BBAA98BF91089579
:10124000AF93BF93B5B3AFE0A4BBA2E0A5BB0000D2
:101250000000AA9A00000000A3B3AA980000AA9A6E
:10126000000000000000AA98A07889F7B5BBAFEF96
:10127000A4BBBF91AF910895FF93F068BDDFCEDFAF
:10128000FF910895AF93BF930F2EF4E60E94B1092A
:10129000EF2F0C9450097AD0EA0FE23609F4E3E616
:1012A000FAE074D0AF2FF02DF068A6DFE063B6DF70
:1012B000EA2FE063B3DF0FC0AF93BF930F2EF06848
:1012C0009BDFF4E663D0E063E03309F4E0E2A6DFFD
:1012D000EF2F0394E5CFBF91AF910895EF93FF9364
:1012E000BF93CF932F93BB27F0EC0FC0EF93FF93E7
:1012F000BF93CF932F93BB27A83C18F0F0E8A456D8
:1013000001C0F8E8A43608F4F0E876DFA43670F0FF
:10131000C8E02C2FA456C3E08894AA1FBB1FCA950F
:10132000D9F7C8EDAC0FCDE1BC1F0CC00C948118EF
:10133000C4E08894AA1FBB1FCA95D9F7C8ECAC0FAC
:10134000CCE1BC1FEA2FFB2FC895E02D67DF2A9563
:1013500011F01196F7CF2F91CF91BF91FF91EF919F
:101360000895AF93BF93BB27A8E0E69508F4BF0F9D
:10137000B795E795AA95D1F7FB2FBF91AF91089547
:101380008894EE1FFF1FAA95D9F70895AF93BF93D6
:10139000FF2311F4AFE06FC1AA1BB9E0EE1FBA95AD
:1013A00009F408C0AA1FAF1B18F4AF0F8894F6CF3A
:1013B0000894F4CFFA2FBF91AF910895BD17AD07F0
:1013C00011F4AFE058C12F932F92CF932227221808
:1013D000C1E1EE1FFF1FCA9509F40BC0221F221C9A
:1013E0002A1B2B0A20F42A0F2B1E8894F2CF089474
:1013F000F0CFCF912F902F9108958894F795E7958E
:10140000AA95D9F70895AFEF6A2EBA2E0027BB2709
:101410000C944D19AD83D0D03ED0A4E0E4D8D7B918
:10142000A3ECA6B9A0E4DFD8D7B9A3ECA6B9A0E88D
:10143000DAD8C2D030D0A3E0D6D8003019F4ACE06E
:10144000A8BB02C0A3E0A8BBA2E0CDD8A6ECA6B979
:10145000A0E4AA95F1F7D8BB3699FECFA4B1F5B1B7
:101460000C942219B395B034A0F4003011F4BB876A
:10147000E0CFBC87DECFAFE0A0930F030C94530AFC
:10148000BB27C9CFDC83DD8397D005D0AFEFABD8C6
:101490000895A4E1F0C09498A4E0A0930802A0915C
:1014A0000005AFB90895F894EE27E8BBFF270024A4
:1014B0000192EE31E9F7D2E0C0E6E0E20192EC17EA
:1014C000FD07E1F7EFEFFFE3C89501BEEFE5EDBFE4
:1014D000F4E0FEBFDD27DBBBAFEBA7BBAFEFA4BBE8
:1014E000A2EFA1BBA0E7A2BBA0E1A8BBA0E8A8B95E
:1014F000A895A8E1A1BDA0E1A1BDA0EDADB9C0E650
:10150000A3E0A3BFA2E0AEBDA7E0A5BDAFEF0C94E2
:101510004219789459DE1AD03BD0CED0F894AFE07F
:10152000A5BFA9E1A9B9A8E9AAB9AFEFA8BFA9E1E8
:10153000A9BF7894A1E0AD8709D01FD0AFEFA88BE9
:10154000A98BA895A9E0A1BD0C942A00ECE9FFE1C4
:10155000BB27A0E8C8950D923196A03CD8F3E4EAE9
:10156000FFE1A8E8B1E0C8950D923196A03CD8F310
:10157000C0E6A6E00E94A90108950AD0E3EFF1E0D9
:10158000A8E0B0E02BD201921196E030D9F708958F
:10159000A0EFB1E0ECEDFFE1C8950D923196A030DF
:1015A000D9F70895E3EFF1E0A8E0B0E0019021D28F
:1015B0001196E030D9F70895AF93BF93EC81262DB3
:1015C0002B840024A091F401A430B0F4F5E0FA1BC0
:1015D000DDDEE20DF22FC5DEA8E00FDF002039F4DA
:1015E000E09305020394ED81FB2D2C84EBCFE09377
:1015F0000602BF91AF910895A0E13DC0E981AC8999
:10160000AA2311F0E0918401A091F001B1E0ED93E3
:10161000A03D08F0A0ECA093F001EE27FF27A0ED7D
:101620002E91E20FFD1FA03CD9F7A4E0E6DEF0E327
:1016300098DEA4E0E2DEFF2309F401C0EFEFE095BD
:101640002E2EBEA1AFA104D0F0FEE0930D020895AE
:101650002B2FAB1BFFE7E0E8BB27B0DEEF93FF9338
:10166000E22DFF27A7E08CDEBF91AF91A7DEE20F4E
:1016700008F4EFEF08952A2FA4E638DEABEC36DE4F
:10168000F8E0E22F19DEA0E029DEF894D9BFDBBF35
:10169000A0EEA2BBA8BBA8E1A1BDA0E1A1BDA0E6B0
:1016A000A5BF24E0AFEFCBD02A95E1F7D2BBA4E0F1
:1016B000C6D0A0EEA2BBF5CFA6E5AA83A5E8AB8372
:1016C0002EDA13FDFECF2BDA13FDFECF28DA13FD41
:1016D000FECFAB81AE3810F40C94C802BA81B23997
:1016E00010F0A5E1C8CFEE27A23B08F4E160B034CA
:1016F00020F0E260B33610F40C94C802E0931502B7
:10170000B2E9E1FFB450EA2FEB1B08F4EE27E33116
:1017100018F4FEE026DE01C0EFEFE0930302A0E143
:10172000A2BB71DE9DD1B13C39F0A1E0B0E056D151
:10173000E5E50E1609F453C0919AA2E080D0809B93
:1017400030C09198A2E07BD080992BC089D1B13A6A
:1017500041F1E8B3E560E8BBEB2FF0E0ADDDE8B3C5
:10176000EA7FEA60E8BBEB81F4E0A6DDE8B3E07F66
:10177000E8BBEF81F8E0A0DDEE81FCE09DDDEB85CC
:10178000F0E49ADDEC85F4E4CAD996DDE981F8E469
:1017900093DDE1B7FCE490DD0FDF7DDEAAE04FD002
:1017A000D5CFC3D90A2EB0E0A2E023D1BED90A2EEC
:1017B000A3E01FD19198A4E0B0E00D2E1AD1A3951B
:1017C000A032D8F3A5E50A2EA1E0B0E012D1A1E045
:1017D0000A2EA6E00ED1A7E00CD1DADEE3DE40D17E
:1017E000B13A11F4D5DEDEDEA0E7A2BBA2E07EDDD9
:1017F000F0E4EFEF41DDA6E022D0F395F035C8F339
:10180000A3E074DDA0911502A0FF03C0FFE0E2E4B5
:1018100033DDA1E063DDAFE712D0A0911502A17026
:1018200059F0AAEC63DDA4E661DDF9E0E091030282
:1018300029DDFBE0E5E220DDA4E050DD0895BF9363
:10184000CF93CEE6BFEFBA95F1F7CA95D9F7AA952F
:10185000C1F7CF91BF910895C49ACF9316FD98C058
:10186000E0E2F2E0C1910C2ECF70B0911202BB23E6
:1018700031F5C63008F48CC0C93008F482C0CE30CF
:1018800051F4A5E0ACB9A4E00A2BA3E027DDA4E65F
:101890002DDDA8EF2BDD7CDE74C001FE06C0C0E9A3
:1018A000A881A06AA8835A2EDEDA00FE68C0A0E9EB
:1018B000B1E0CC91C06ACC93AC2EE0DA60C0B05EEF
:1018C0002B2EA1910A0EEB17E0F3A081A01509F0D1
:1018D0005FC0CF3089F4A1E296D0E1E2B081B29549
:1018E000AA27BA27C5E5BC27BB23C1F3B0931302CF
:1018F0008AD0AF5D88D045C0C83031F4EA95B08158
:10190000BA3A09F4B8C044C0CC30B9F4A2E27BD0F2
:10191000E1E2B191A081CB2FC07C21F0C03431F045
:101920005DD006C0FB2FEA2FC89502C0B3700C90A3
:10193000A02D69D0AE5D67D024C0CD3009F028C09D
:10194000E1E2B191A191A43039F0AA3029F0C0911F
:101950001302CC2309F41CC0CB2FB370C07CC0345D
:1019600049F0C03809F014C0019043D01196E21537
:10197000D8F305C001900D92E215E0F300C0A6E097
:1019800042D01F79A0E2A093F201CF91C4980895AC
:10199000A7E039D0F6CFCF910C942A000895CF93C9
:1019A000CA2FC171C13109F4A295AC27CF91089516
:1019B0000895AF93A0911302CA27AC2FA171C13132
:1019C00009F4C295AF910895FF27E7EBA081AA958E
:1019D000C895B081E1F70895F1E0F7CFCF93CCB38C
:1019E000C370E9F7BFBBAEBBE09A00000DB2CF9168
:1019F0000895A8952CB32370E9F7BFBBAEBB0DBA11
:101A0000E29AE19A0895EF93FF93E0911402EA0FAE
:101A1000E0931402E091F101E83310F0A8E42BCE3A
:101A2000F2E0A193E093F101FF91EF9108955D9BA6
:101A30000895ECE2F2E0A081C49AACB9C498A091F8
:101A4000F101AA95A093F101AD3208F40895ABE03D
:101A50002A2EADE2B2E02D9121932A94E1F7089568
:101A6000A1EFA5BBAFE0A4BB00000000B3B3D5BBA2
:101A7000AFEFA4BB0895F894D8BB15CDE894AA277E
:101A8000B82DE72DF92DEE5C08F4EE27F25308F49B
:101A9000F1E0F43A08F0F3EA64DC0024222420E1C7
:101AA000F695E79510F42A0E0B1E07942794F795E8
:101AB000E7952A95B9F72DE0889407942794F79530
:101AC000E7952A95C9F729E1E20FFD1F96F0E0930B
:101AD0000902F0930A022227282C2E1B2F0A20939A
:101AE0000B0220920C026894AA27BD2DEC2DFE2D2E
:101AF000CACFE0930E02F0930F0222272D2C2E1B4B
:101B00002F0A20931002209211020895FFFFFFFF79
:101B1000723932333039387765726C6975303932E1
:101B2000336F6977756572303839377464756E65EF
:101B3000746F6C646D6E6E6473007364666A3039C2
:101B400032333875726A66736466387232797569D1
:101B50003334756F77656A637662693334386376D8
:101B600062776575696F6A3430326376623337380D
:101B70003975693033397738657569646A33393056
:101B80003865377230773839653769646A00736F42
:101B9000666A303932333875726A667364663872D1
:101BA000327975693334756F77656A637662693344
:101BB0003438637662776575696F6A34303263767C
:101BC0006233373839756930333977386575696408
:101BD0006A33393038653772307738396537696438
:101BE0006A0073646F6A303932333875726A6673AB
:101BF00064663872327975693334756F77656A63F4
:101C0000766269333438637662776575696F6A34F2
:101C10003032637662333738397569303339773823
:101C2000657569646A3339303865377230773839A9
:101C3000653769646A00FFFFFFFFFFFFFFFF7A7CE3
:101C40007E82C2CBD3D7DB00050A13161F213135A4
:101C500038434B51535B5E6870748DA1A6ABB01CCA
:101C6000C711FFFFFFFFFFFFFFFFFFFFFFFFFFFFAA
:101C7000DF03DE03F00349040E05DF03CD04D204C5
:101C80001F0429041004B404C40433054A05A7043E
:101C900033043E04FF0277057D058305CC053B0D2B
:101CA000A60A6C055C056405BD0AA9017706C80390
:101CB000F304FF048F0587058B053B0B3B0B3B0BA8
:101CC000FFFFFFFFFFFFFFFF53687574204F66663D
:101CD00020506F776572212153656C66546573746B
:101CE000204F4B2046303035456C656374726F640D
:101CF00065735265616479212020202020202020F6
:101D0000204D4B2D33313220507265737320416E5C
:101D100079204B65792E2E2E7F207E2053656C65B1
:101D2000637473204D6F64655072657373207F20F8
:101D30007E206F72204F4B20537461727420526169
:101D40006D702055703F20205365742053706C696E
:101D500074204D6F64653F205365742041732046A5
:101D600061766F726974653F536574205077722095
:101D70004C6576656C3F20204D6F7265204F707406
:101D8000696F6E733F202020536176652053657420
:101D900074696E67733F20205265736574205365C4
:101DA0007474696E67733F2041646A75737420416F
:101DB0006476616E6365643F52616D703A202020E5
:101DC000207F7E3D4D6F6465202020202020202034
:101DD0002020202020202020202020202020202003
:101DE00053656C6563743A20426174746572793A24
:101DF0004661696C75726520507772204C65763A41
:101E00002041646A7573743F4D656E75733A202086
:101E1000204C6F7720202020204E6F726D616C2047
:101E2000204869676820202052616D704C65766C8F
:101E300052616D7054696D6520202044657074682E
:101E400020202054656D706F202020467265712E11
:101E50002020456666656374202020576964746895
:101E60002020202050616365205761766573202013
:101E7000205374726F6B652020436C696D62202063
:101E800020436F6D626F202020496E74656E73650C
:101E90002052687974686D2020417564696F203123
:101EA00020417564696F203220417564696F203369
:101EB0002053706C697420202052616E646F6D3104
:101EC0002052616E646F6D3220546F67676C6520BD
:101ED000204F726761736D2020546F726D656E7450
:101EE000205068617365203120506861736520322D
:101EF000205068617365203320557365722031204E
:101F0000205573657220322020557365722033206E
:101F1000205573657220342020557365722035205A
:101F20002055736572203620205573657220372046
:101F300053706C697420413A53706C697420423A52
:101F400053656C204661763A52616D70696E672008
:101F500053617665642120204C696E6B6564212095
:101F60004D61737465722020536C6176652020206A
:101F70002020202025202020412020204220202019
:101F800052616D703A202020202020202020202027
:101F90002020202020202020FFFFFFFF0000020043
:101FA00000030FFF00000000000008000600000012
:101FB00000FF00003E3E00009C9CFF0701FCFC016E
:101FC00000FFCDFF0101FFFF00001609640101FFC2
:101FD000FF08008232C80101FFFF0400C02C2087E7
:101FE00002777676E114D70119058205CDFF0178D5
:101FF000A5FF01640FFA016446FA01640C010600B2
:102000008502B202AEFFB30A00008502B205AEFF40
:10201000B308000086018740BE41BB02B541B080D5
:102020000000AC250000FB03F04000008600874064
:102030009A4AB502BE260000F202FB0200008609A1
:102040000000951F951F9A499602A5E097108601FA
:102050008717B746ABFDBE00ABFDA900AC01A6E0FB
:102060000000B7B4971150A50100B74697100000C3
:10207000B5049602420D44959713BF04877F9007DD
:10208000D006860000008501900685039712D007D0
:10209000420D4495000086018720B504BE00B77D3F
:1020A0000000B77900008308D0A0AC0186CD87D4AA
:1020B000B504EC090000B504BE000000AC00B73266
:1020C000BB04BA01B8328501BE01BD19FE00000093
:1020D0008501BBFFBC1AFE01FDFF850350B802005D
:1020E0008501BE00FC1B00008501BE01FE00BB0196
:1020F000FB0100009006000090070000D83FD93F88
:10210000DA010000A902AC55B500860087209005D1
:10211000AAFEABFEBE00B7FF00008503AC00A5B071
:1021200090068D058E184D95D603AB1C8DE08EFF65
:102130004CA78D068E3F4CA88D1D8E1F4D97ABFF73
:1021400000008503AC019007AB1C00008502AC01C8
:102150009007AB1C00008501AC019007AB1C000090
:102160008D018E044DB24CA84DA84CB14DB14CBA66
:102170004DBABE01B502AC02D603D7208D058E1F25
:102180004D950000EC41E6E6F7D8E9010000B50006
:10219000BE00AE0A000086018764B541B306B0FFF9
:1021A000AEFFB2010000B202AEFFB3070000B204FE
:1021B000AEFFB3050000850286018764B541B3090F
:1021C000B0FFAEFFB2010000FFB9AED3FF187EE54D
:1021D0000E004C6595DC5EE29C8C65642578EE1300
:1021E000CBD525269B37D20F32588DE518274511C0
:1021F0005D14F13D729B94794A0F77B0B1A9A24B5F
:10220000ECD19C2392AB65ADAAE5B16006C0666ACD
:10221000DF5D5795B24A43735A4D09D16F6F2E5BFC
:10222000DE4C918CC99B6DD9A1F9901E81FADA49D7
:10223000CE72F8450D00622905DD93A116E3889D55
:10224000D8E17C39F71EE1ED4E2BA2F642EE980460
:1022500061EC4B253CD6EAF182578DF75E1DA968EB
:102260001226D402D44CBB40E91461C000B39AF4E6
:10227000D162C70DF6E4D32409546EAB003489143F
:10228000C5B312C0193FF12AAA4B43547362D672E8
:10229000556DE5D5F441151BD36CAF95B24120F9CE
:1022A0002821AE497D0C7D03CA69C28A541245D4E7
:1022B00025A41D55EC05A72C1736C98D2F5B656F1E
:1022C00073082076B8CE55238006543A5ADCDF7462
:1022D0007AA0E766984983B10D4B326B2C9B52CEA6
:1022E000DFFFE020839B71E205B9713C3DD89CA8DB
:1022F0008AF8BADEAF259F00EE4262076318DD6EF2
:10230000A39F651D958BCB98901A9368B51D73CAD2
:102310008F451097EAB0F473F1B4D33A8BEBFFA773
:10232000F77F2946A6B7599D59C231977BC45E31C4
:10233000C11F5F6700037A614E39FBDA5D2BB0D1B4
:102340001438A2746F3715499849C29F46E4533434
:10235000571D2028A93629223E6853C08FF1E74532
:102360003161487EA622F5F58647BF59CF964B2DA1
:1023700089D8CBB19E5FF80EF8D953C5DC559E596C
:102380008693953B0691F2F75A52A09ECDF13E738B
:102390008FE7D7D99599E07CB42573BFF96ECB66EA
:1023A0004B660085449B03A94C05DD44F80E245E72
:1023B000A2E3BE7A49FAD9C6AAE42B88A05567C51C
:1023C000B97100331A59226195F6ED250805F446D6
:1023D000F963F66B6F9BDB4313ADF2F688216ACD90
:1023E000074D0E1D3FE245796CBD4918B6EDA78338
:1023F000CC00F884C193DE4C261942E369EBCBD5BF
:102400006E91A21B6B4F654709F46AF4B9DF356D15
:1024100054523C9DF6FBDA371CC09126FCCA843727
:1024200024D6340557B87A25A530C693C9F2965DEF
:10243000C7F0398EC6EAC65D2B395797F8D78B4A55
:1024400064B33BB3BA347C6A770CD5CC9F3FC2A946
:102450006072692FEA799B168D1C0E0E152AD965BC
:1024600063C131FD4DDC626EB71D1177F2DDB0AA9C
:102470005472425819BF51BB7A022D620CDA66E2DF
:102480005B978CBBC6C726889DFEF06C7AE55AB96F
:10249000DD853DE10BD6E0A229832B6D94002A183F
:1024A00083CFC5C5DF0EBE126245EC83F06EB62C3D
:1024B0003246D2A379D33F25D236810765B31D5F5B
:1024C00013FE54F450C823633D8A7B940A91BD5D8A
:1024D0008C4B79741AD0689AADB4A706370C360FB6
:1024E00044BEB11ECF0E4DD467661577836667A2D2
:1024F000222CAA2DA6E5515BF2941543C3226E80CF
:102500004DA7531D16F833BB177134041004AB5597
:102510002C82DCA7D629F3BEDA6F4296C00EBD0B23
:102520006650B3C7DC9DCF7185424F136B8483CD5A
:10253000E2E588B861B5461D9DDDA8D7E7E81B0632
:10254000C75249F6DA15174EE972DD7D4BFDE5619C
:102550007DEC263AFFA042CF7175BDDFEFC77FCA81
:10256000A9458D80C77A04AA7C9857186888CA6BD9
:1025700034302E046803DE2C90CFFA8490C3E3B08D
:1025800044C0F73F5BE18EDE754D35BE7B3C2A4291
:102590003F4818ED55F6138C3184D7A082F53D0ED7
:1025A000CE5BFF0A4E65AD400C28EF453B32FC3E4A
:1025B000D7CD5BCF7D90D9478D2CCB097E75863DDD
:1025C00081AF1CB9591B582A7AC2FC8761823AB77D
:1025D0003356708199EA28B5DB5E50993B5AB6961E
:1025E0009454C723331E89F2F6B3D55AA343DA05B0
:1025F0008B7CCFDB601BF82E53B3DC2771BDC5701D
:102600003FE17822958436F2B892F398BB8DD5805D
:1026100018D7F0B58A3C410A2DC3E88AD9B6AA2258
:10262000BBEFA78D36655881F9F8CC186179238105
:1026300011FE4BE7CF64FAA1A225EC9C2A5C5E0652
:102640003F15CB3DCEDBE6F7F07CD8B24B1FBC5E2E
:10265000AE895749E8AC1C4CE97160341CC7DA7389
:1026600004EC5E0815FBDAABD5B7913E3397977053
:1026700027118EB38C2B9F613A40BB2A681013C17F
:10268000400CD6C7C4E02AF7E0406D94D1F7AD10F6
:10269000B52E66FD73FA7B39CE2A7756C54F0448AE
:1026A0002D0CAC52929FCF324AB0E68CDB5AF79495
:1026B000907858005631A72DDCC60A90EB9BA46099
:1026C000038458813753C1B44A9F72FE0BD66B56B0
:1026D000EE85DB92ECE71D939CADEDB0920DEA61C7
:1026E000F80E512D6C12F8D519A48AC2188301ACCA
:1026F00009F0698DED35D3C54776978E73BCCFA3AE
:10270000463F112CE8F46CEDEE57A5B0BB7BB3F05F
:10271000184F78C71232C21A14BA820245C14B7ED2
:1027200025B20E586312145501523DA0ABD37779F0
:10273000533B811A12F7E2E93B1124E5C134564AB2
:10274000CBFDC1879584EA638A2AC86BA0A6469E02
:10275000F34BFC5CA59B2A8CF512F70D9E2CE860D0
:1027600072B8A2933761E470C27ABFE7520918B910
:102770002F1761678337945A7955715494C1F816AD
:10278000517C295300C2FAD5E0D89AEE7A17E52198
:102790003F39281265E316ABFF740A905B0D7FC6C4
:1027A000A1E1CD9EA9BE26E81CDCD156CFE6A52E20
:1027B0005C47C83402B6A9D7BF043C9BAC2575C69C
:1027C000997E084EE96E5F03AF1FDBF9098E4F3823
:1027D000BDD9BAA713C94536F2A07D4B3E24D270AD
:1027E00071EB503A78E99C7CD03932ADE128DD9725
:1027F0009A8877424F33E220CFDD477AC91F8E1A7D
:1028000061C21E3A0E48D6ADB7C14C4C0ECC45A3A2
:102810002CEB74DD6E0D77ED8F5610FF0631A01E88
:10282000A298EA2664A305ED9D4FA2AD489180B51C
:10283000AA9B2C50286EFEF668A151B1AC7002D351
:102840006B082BD631112193B97DABA84890852315
:102850004C301673366F6D919456816A73F4AA905A
:10286000F4A85A222DAB21F943E1E115C5E04E460B
:102870004B41A91E4F27BD174B0E1A0114D791AF1C
:102880007610F0E21188FF767313BACB779AD1777E
:10289000DE675E2A2BAFE6E1C461924E462EAE871C
:1028A00028D963EF94C1B16282ACB0A517D6070CEA
:1028B0003D39AD6D831FDF4537E66229C113FB70DB
:1028C000429B2C1F6E6D3015A74339785CABE85FD7
:1028D000A0500EC00E8EA29DDC36026A3E9E6EC2D5
:1028E000FDEDC24B58A574E71B71CE1DFE316CC6C1
:1028F0004044F8FC8415253FEBE8EAEA73E700D58D
:1029000090689F4C0981743015CEE66CB5818B9B25
:1029100054ACE5F79ECB61859D95917F1B04A90280
:1029200033A339F839182A48CDF1FB3D3AB33C3589
:1029300015204B8B12C94EC62AD57102EB10619F30
:102940001F370929A1828C887B73836944DE78EB69
:10295000B93AA38E9B26E359C83F004C9D21200520
:102960008BBB87B6F8D8934658EBF7C68C1B371746
:102970007A8F65DAEEFB1A98B16BB733E850DD8DCC
:10298000AFC82B76F63237DB9BF2CF2DC8827110A1
:1029900090BA0846C560E9DA1CF30E9084B4918DB4
:1029A000C4F66C4353A870A07C208377B3291E2EF5
:1029B000315006A9D76C4977426C7D3C2A66345F5A
:1029C00000DCC3F4C85035EB340C8A7B022B35C9CC
:1029D00097ECD5DDDD3832C75A717B0E917DBE593B
:1029E0009D13A9610C457F16FA4E5E106F9EAF399C
:1029F000FA24EEB98DDB9C229C9781DD711227D5DC
:102A0000D3329462D89D4778067F7510B19B84D6E7
:102A10009090C915A26E7EE140790783833C6629B8
:102A2000D9D2FCCFE2708268913748528039ACF934
:102A300093C9DDC9D108D25A7FAD85D77E1475AF51
:102A4000E78A5B80E4D72B40D20D4FAE95911FF8FB
:102A50003A67A4ADD4C28EE690CB73B11AB24ABE27
:102A600035F3274D96EA3957019A01FBA7BAD42CC2
:102A7000BE01949A62B3ABDDAB6C48E9102DDEAEBB
:102A8000FCA4DA0EAEC0A3055675D8136ECDC5EE04
:102A90005630266633F4219809287E57179D29D78A
:102AA0007337EA9BE67262A20A374ACDA2E1E89444
:102AB0003A8BD2EA009DE76DE1968BD3E71C229119
:102AC000D241CFCDF6186E865478D002FC0F3678FE
:102AD000A2AB10FE80C5F7B66B4FE83539BFC234E4
:102AE000525C037A94C9BF096DCFE288336FA7F0B7
:102AF000C728587B6B8547CAE0EB0C55C4A1021868
:102B00002A20FC7C7A9D4D838CD5F73800183256EC
:102B1000E099213779F4D0007700710B40D8D8952F
:102B2000922434A960AD0F4CE92189EA1A23D1011E
:102B30002696E40C632B8AB268298D30657C3C03B1
:102B4000C30121DBFC11FEBCBC4C0E7639A77A48D0
:102B5000D0B819D0E1416C37ECFCDA9AECA628BB6E
:102B6000F44F3CE808E0122C3EEDFFB515BD26857C
:102B70001697385DA94F70E73A12CE228C6E9213E9
:102B80005DA5FCAA3B3343F2A69DD47D677CCD0FA7
:102B900030CAB88A756D8C1A8A02E1A1FDEB7465A2
:102BA000369BDBF84E2189682CF305A8E6FD663ECE
:102BB00057EA132FFCB2B92814648DEDF836C40718
:102BC000B8CA4FAAF7C3DCE40988090C4B58EB6A72
:102BD000C28FBF23F737EF6911D249E034667A53C9
:102BE0001ACAD197F13033C074F45A834CA452EB13
:102BF000A95035401C132635B8E28C516A94909F39
:102C00009532D999F1818752A5CE6EE4A3F9941932
:102C100045C5ED5D255F55E4422CCF1750D7FD45E6
:102C20005F9BDF87B1CED0F4D5AFBE070871A94D49
:102C3000CC875F52CA3276CEE5498A0CA048B89C50
:102C4000B39C5B39E82E06FD3B2EC2C3312189DDE2
:102C5000792E02F8C2A57F4BDBD0340712FFBAFCF5
:102C6000C6CEC4884EBA20C50FE4F1F2D8242B2278
:102C700081514F25C5CF69B45C5B47E05C13FBBC59
:102C8000D2C9934A9C8918A48968C56BB490887589
:102C90001E89BFB28BC92C5F9F7F396F389D7336F9
:102CA0000E24405889B4E4F2E253B4067E7D992C98
:102CB000876DC877CDABBFA6DCD6838C5DB419C158
:102CC000B277438ACD527D07513D379BED0454A125
:102CD000F596E24D418C1CDF4BF89D0F8471E7B5F2
:102CE000F75C14B9217CDB3B0FBDC603B93DB12AAB
:102CF0009F9B870AA2853964247DFFD064EBD36B48
:102D000014682ABB3C4AF5E6536BD8149B3FAA21B2
:102D1000BD152D87A5AD0F8BA0FC21A8B53BD639DD
:102D20004136FF6AD6D3C56055E0E7A7492235DDB5
:102D3000879C4D9D041D96AEF70D7A6D2F78E8782F
:102D4000B65C099CA72F41014DB469947E004BB538
:102D500036C75F2376ECC5245F4983F88BBB0080C0
:102D6000AC72C12B68776222747ED7B4EFEFE403B4
:102D7000012FDBF0B43396451248B422801C18AA08
:102D80005A119EEED0C3201901D7A9DD5607F81EAF
:102D9000206B39DE750AFF6947A185C1C7B2264C91
:102DA000F9D11ABC982A723F2C5757E96A617F5EA5
:102DB000CC14F0C47188F9E837ED6EAF169623C0D5
:102DC000C049AB6F77C552ED2E9558AEE314701B1A
:102DD0003CC1797A60C67C1A19C3E6C227DF075C5A
:102DE000E711CADE25ACB67A3E2926067A39C5AD8A
:102DF000A80B4CD8FBDB805725BC66D4B2A6C97A99
:102E0000A6C3EFE15AF6973D94AD37C8E6E8746C77
:102E1000498AE1B6F9E0FCF7936F66BC6D03637015
:102E200036F49250CFBBED9069B604CBDF3876B163
:102E300056D5B0EC13ECEA529C755E52120CCB984E
:102E4000CE3F2B033B14B0CAF4DE05E91E42C2D2CA
:102E500007853052FF1840C17766C66E59DCFA49C3
:102E6000A73A31D25619D8426DBDB1F95A1D522830
:102E70009431DBC0777BF79A5CD915E7F889E8DBFA
:102E8000F77D1D95D9E15C520CEB82D34BE21C0C13
:102E90003672270E332E06368466C597A92C8DA66A
:102EA000F8A167257B8535510AFFEE4FAAA919D4F1
:102EB00024DF8D14E94967EE26A74C5523DCE00298
:102EC000E23E8758F41D5B979E916E452D8941DA4D
:102ED000971185AB53E310187A3123FA1FB2DB4701
:102EE000EBEBF507FDBFC67C013A7A8D8F9A8C74A7
:102EF000C69F86A92915FB0EB99FC25C54C574CD27
:102F00004D41280B4D866E596A92890085F5F2FC79
:102F1000E92209E821F61E271A87A0547A2EA4EC8C
:102F200040D7993A9C884A8411301574C9B26AC94D
:102F30003832873EF59F72BAD58137BA490563FCAE
:102F4000FA46C06EA3DE53562EAD94C212E8ED329F
:102F5000EC6676855C27EE212326FD677A61A8560C
:102F6000B525157E199F8127FAA07FC319B07391EB
:102F70003C574E930FA78CB33B0E6B31C45A6D5028
:102F8000A80D1041B6E4CC50ACA24E4D9422F43DB5
:102F9000609C8942C53742C855D0F9F2E009A8447F
:102FA0000C96299132C42C277C4A793A3D55688E7B
:102FB00091CE9D6936EE09B8A9051E808486528897
:102FC0001857D74546589806A3317760CC61C6DCC0
:102FD000068404E01AE5D9DB704454B56AE86376E8
:102FE00004E99335A9B70A4358EFC299F75F077F01
:102FF000F757347F2A33AA89E12611674A48D364F8
:1030000008E3D53976777B788386818681768686D4
:10301000EB89EE70E63039F4EE85E0FD0E9415187C
:10302000E1FD0E9421180C947818ED85E23011F032
:103030000C947818EF85E395EF87FDE40E945C0916
:103040000895AF85A03011F00C944618A0E0ADA70C
:10305000AAE0AEA70E94AC05E4E0F0E3EA0FFD1F92
:10306000A491AA95AF87AB8FE4E00E94C803E0E18A
:103070000E94C803AEE1ADA7A0EFAEA70E94AC05C9
:10308000EE85E2FDA8E2AD8B0C946818E9A5FD89F8
:10309000FE17F1F4AF3FD1F0AFEFAF87A5E0ADA7DA
:1030A000AAE5AEA70E94AC05EE85E2FDA9E1AD8BD5
:1030B000E8E10E94C803D8BBD0930502D093060272
:1030C0000E944B0AA4E60E94760902C0F0E0FF8746
:1030D000ED85E23069F4A0E2EE85E2FDA1E20E9416
:1030E0006E09F9A5ED89EF1BFDE40E945C090895C6
:1030F000E889E83210F40C941F020C942202E54097
:10310000D7A9C0E12C2FA03210F40C949809C0E28A
:10311000AC1BC4E08894AA1FBB1FCA95D9F7C4EBA7
:10312000AC0FC1E3BC1F0C94A209A3E2AA8FA0E2DA
:10313000A88FA98F0E9476095AE028E049E063E051
:103140000895AD3011F40C94A104A33229F4AEE03B
:103150000E94030D0C947F04A232A1F4A1E0BE856D
:10316000BA27BE87B170B0930702A3E2AB0F0E94EB
:103170007609A4E00E94760964E034E044E054E07B
:103180000C94B304A13249F4A2E0BE85BA27B4601E
:10319000BE87A0E0AF870C940E05A03249F4A2E0F0
:1031A000BE85BA27BB7FBE87A0E0AF870C940E0513
:1031B0000C94A50452616E646F6D33204D6F64658D
:1031C000203F202052616E646F6D34204D6F646526
:1031D000203F20204465627567204D6F64653F2065
:1031E000202020204C696E6B20536C617665205541
:1031F0006E69743F44656275672044697361626CEF
:1032000065642020446562756720456E61626C6567
:10321000642020209191BA4E26A5053598099FF883
:10322000D4576811FC4698F7817500857E787FA990
:103230005821C34E9410418BF97D770CE74561C14D
:10324000F6333AC6A03158F4B395B03490F4003058
:1032500019F4BB870C94190ABC870C94190AB03076
:1032600041F0003021F401E0BB270C940B0A0C94D0
:10327000420A0C94490A83974D852326202632481A
:103280003396A15DB0910F03BF3009F4A1E0A09384
:1032900000050C94890A2C153FE4EF93A4E6E09115
:1032A0000F03EF3009F4A3E5EF91AC83AD830C94E9
:1032B0000B0A877F13351FB670910F037F3011F013
:1032C0000C947D0870910802753030F57A957093F2
:1032D000080211F17230D1F024F070910502872DAF
:1032E00003C0709106028C2D332498E0869508F473
:1032F000370E379487959A95D1F798E0889437944C
:1033000087959A95E1F780958FB907C0949A000048
:1033100094987AE07FB901C0949A1FBE1895B08343
:103320002DCA3F0C19A3C5FB797FE13EB88243D17A
:103330008B0E69B0C7539903821920856ECDC936AB
:1033400072CBA0418AEBE830E04E5A4E2B6AA15D69
:1033500049541279184DB04C9A906074485B6931A9
:10336000B73C2F53699E3063F6933F105CE401DD58
:10337000A356A50AB53FE8C07C4A48803D8787CD63
:1033800034B6641971D595EDF2E7085D02075BABC1
:10339000D1AE9A3A544138B760DE508202681C635D
:1033A00021D1B66A57A70F270CE22D0BD5ECA91E29
:1033B0000CF268E3B06A99897EE5EF535117204912
:1033C000B7249E20D52D95677D1B26F48DABE18E0D
:1033D0008BBA88DC7ED2038E0FF69FCAE1AB8BD905
:1033E0002D479512A27E21077C2A6AEFE35BFD53ED
:1033F000869F72FD78936E1E4AAAD6BE6A3D5569B5
:10340000BCD4111876B3A95D41A872D38E14F3C64B
:1034100035389E1E55C2D19168980D09A5E47553A3
:103420009A608A0A0AE426C3052DB67A46EFBC3DA7
:10343000D11E8417CD7A253F9F59BC8249B9E5EE4C
:1034400001867AC015288F90FF50AEBBC4044F117F
:1034500092E99BC099D1638029855B010ED49B9230
:1034600029DC57125097DE1C67AAD16EBF6BA69A53
:10347000AE305DF170DF80AD3EB3615EAD4C9096D5
:1034800049FA9BD8714B09BF75D2996BEF3AB731A6
:103490005F8C40830ABD771C147C4771DC39BB54B8
:1034A0009979BCEB325A09D162617C8A0C8C7B2CF5
:1034B000DC94BD4C20833F27E577861256B5162352
:1034C00051F132214BDCD6AA65EFF3A3CF77EAE5C1
:1034D0005EE14B256948CF24E93D9419D0D5975B2F
:1034E000AAF9775372EA68A2B713768EF013FCB28A
:1034F0001B0B64E79D25206D5665E95E04B43755C6
:10350000DB2A015A619BB7118F667D23257AA9EDCD
:103510004EA97E6875312B596688FFB9A968EE6798
:103520001C1B4A0CCF08BA4F257F7F3B28C1E8ED12
:103530002C531382A885E53F513D4C037809B4EA2A
:10354000A565C84375496BB4B1F7F5ACB003B20AD1
:10355000EFA3990BEE3849794D1D491228B08136F9
:10356000AF9FF4D60A75C0996C65574F7555FF9B90
:10357000CE2E88DDFF634D5E94C06EBF71754CA486
:103580007162459C46A5B1548D621DFD30D2C7FACB
:10359000018F5ACF941EEB465DBD33E30B6F0E8A4D
:1035A0002446356FE1F0383F4C85BF8C9890027E01
:1035B000C15B85B864801989E1AD1054AFB7C042D2
:1035C000FFE23A26946F4CB0E267B5D666A7A77FB4
:1035D000452D837228A1D07F57277CEC1464572295
:1035E0003ACFCD99163AE40186A076B25030AF5565
:1035F000C59BCAD4979B0780F7C4F182F28FCE8413
:103600000DA466A02068F98870C77BF71043125993
:103610007A3DD3B66983B8E4F91BE5ED024F1CBFD0
:10362000B1FA7D136911839FD9753C7F5EF7C8E1BC
:103630009BAC15F05674D90396C5D007FBBD382A4C
:103640005D688ACAA94E7A9DF8413121F065C94664
:1036500060800A5A17846336055A2CA795F11B1F00
:103660004A87049D9837D5DA05C4D1B580A40DE00A
:10367000015028CC63CB4ED37E7170A58902BDF575
:10368000AEEE6464EFE38EAD38959613C5CD8B082E
:10369000B7B5E81FF26292343AA313D98E09160423
:1036A000C33722F7656B9B70CA4DF61378F83C144C
:1036B000B946C2297D6127AF70878E1B5C1D1DA492
:1036C000C1F7B62FB2E6F57AF2836A8D503C185EE8
:1036D000409C2EC3BBDF049E58B65943AB57CB2D3D
:1036E000DEC898E28F6D9423E9D16A5905B1173C81
:1036F000834FA3C664F522572BC7EC2934CE19F7A4
:1037000054423FE9B2186FC4E6CC6E4F5070300897
:10371000BAF69B0831BA79342053BEA6AE9BFD5A47
:103720005BFC251DD6FE80B3210EED48E7915D19A7
:103730001D298C63D947018C6FF14990D2D56FAFA9
:10374000298FC055B037BD49D22F601A852B94C739
:10375000E581EFAD14B3B2B6513A03C05795694C49
:10376000F8938968FADD1FDE32C63F9EDF57CE69C7
:1037700049963CC09A17830CFDC6650FF5F3E18AA4
:10378000FF9FF7306B059ECB786C02ADAF2C0359D1
:1037900081FFEA73248B6EE5AB2CE7536406D1C23C
:1037A000774B8484BCCA3266DCB9211DACC32AEED7
:1037B000C655739E69266999930500665DE72F4A91
:1037C0009730A63BA442D209974414C88E343D805A
:1037D0004F304D1822006D80EEE82A1E97ADF47C24
:1037E00097E6D62FDB85770AE0A552840E963267DE
:1037F0005427F1BB063371F2F36EDB55CA7117AE75
:10380000AF048C3719AC1AC3EF75542BE30202FCDA
:103810000ED2D75ECDD46F47DB2E8CE2AF4B923AFF
:103820001823402B17CFB08BFD4C9294C58FA595D4
:10383000B4CA77D92FFE5DD8DCC1B59DFD525B7748
:1038400009DA6AE38C0534B941C184976D56138B4C
:103850007EA74804E5C734FB30BFCE5E6C9E6BBDCF
:10386000BAC2813730669DA7F36DA20C926E4336C3
:10387000A500C3B8A647EC090FBF4EFCB548BA6413
:103880006473FE00BC0CE2AC4BE863CBECF02FEFB2
:10389000606E60CB2A977D5BAF5AAF518F6840C393
:1038A0003E845914E70CFC2082C940AC34F3CD0CA3
:1038B000E78897162ACFDF474A276734B215F434D2
:1038C000808D0A4C6981E35BCFA8B187219016E710
:1038D00072E7E0715D06092718BFEF7ED668D00F4A
:1038E00063288981FB818FB56B1E2E346BDF01D677
:1038F0003A22B3B57B55F4514FB9BE05B478CAAA84
:103900001EEA4D895424F8868DC32F8BCAF788335D
:1039100076D287B83DD3981F29AE4EA2045EDB5EF7
:10392000E96ECF3E2C8315276D2E2B64F7F1A15540
:103930005F8FD5545999EDE8DE35152D7C32FB8328
:10394000FD4A87763CB6DFEE43F89B98A9E446949F
:103950002BF0155F8ABEEB04A4E88D7FD60B217196
:103960009116ED0B3AD44E3448B8F8FD99E96D47FD
:10397000148EBFB3855B89CBB55C2C6EC9014781C2
:10398000DD6B79D4E1F65A52B307B76D7D170EC8D7
:1039900052004B270488C194482B6AD40D2D63092B
:1039A00019E1A3A8E633FB9EBC7C53BE0F87236EB0
:1039B0001BDF3093BE5C89B996EDC1875BA76E6350
:1039C0007E0FE26103A429729CB043CA0751A29101
:1039D000A9C2E7CF6CEFDA91D639A7616A8660E5B4
:1039E000438DAFD6EF61DB248A3BFE671C8C858953
:1039F0003442E8B2C45BAB7540A89638F2E330E9D4
:103A0000A1F582DF63810A0EBEB4FD6F0650C2AF1E
:103A1000F2F7AB1680B5F6BB0CD204E6ACD6D8C62E
:103A2000CFDCD354151CAE8771B4B8B97DB75259E9
:103A30001D78A8D25818B1BC734E6A424F764ED347
:103A400005DD190DBF4BBFE6DAD2A71D3AD62CE033
:103A5000EC5E56BF039AD5D0ACB43F2493DB8B6A9F
:103A60007B8ECEE21926348531A74273F3C84A9C77
:103A700098402FB339535A50EF9DFD64311E87E2B1
:103A80006A8768ABD9C407BBAECA009363A3A2E63A
:103A900058B7A987B25C389275A11ADAE0573A9301
:103AA00009616041B93E2EE08AD45A553F7F2D14FA
:103AB000645A3D1327CD67F075570F5E589D9BD50F
:103AC00090B42E7A71ABA24CFC5DC8914175E38035
:103AD000F4C262304FBDDEC0275854C85209A4005A
:103AE0003817492FB7245B573DFCC21F209DBC806F
:103AF000418692B4E245965CC43B61F084B24B6C63
:103B000038232B3945C150598449C0D7950EB06E22
:103B1000823F4378987C871A8399ADAEA9B18971A9
:103B2000C86F4A6ED2997BAA09DE399157E0B6A1D7
:103B3000F085EE552A7BA9549C0AB2DB761E5668A6
:103B400021941FA817C4D2A30450A6261E2DC77106
:103B5000C1EF0B225059F4614825E64DA510A9A7E5
:103B6000792922BDCB5C4E9AAE3A806CA20BDB3534
:103B7000301612B6C02F5F99BE82C2DEEDA07C87E0
:103B80000BC7CB87A676E7E83E313C3D9C92EA47DF
:103B900072917BEB3415E45436BABE6406E5C56118
:103BA0000C0691DD612D94E6ECD0556FC3DBECFE85
:103BB000C1F9BD98632279EAE86552B9A9F77D8B0E
:103BC000B67DEE97B2974FEAF1AD42DCCFFDD8B2A9
:103BD00054E55295056E17B30D1AF5B38DF09C5F41
:103BE00040C5588D53CC0E4E84607A5A7911A7BBCC
:103BF00063EEB0BAD313B507DC72202C6BE61A3330
:103C0000E3754897FCE5CA69DD8376C3782F517266
:103C100026AC4FDF84264D3E8E054BFBF9F1EE615D
:103C2000D526368D64FA7B9235ABAEEE856ECE2D01
:103C3000D6B6A9DCD1C2D5B0596AEEF7F12A114047
:103C4000506F994743221923C3739AB356E7164519
:103C5000ABA4358970FD46B6773981FA0AA97B286D
:103C60008CE9EB9D51759C73BF70B2EAA5B121122E
:103C7000DB106ABE1BEF98A6200B7BDBFD85247151
:103C8000C02CA267470DFBDA613D6D6A29E5E6EDC0
:103C9000A08FC1538AB1C3D98A78567281D6047372
:103CA00024CF377DDCFF2FB0E270440D9B9B5E2C50
:103CB00031BCB220735BBFA8EF1788974EB613864E
:103CC000F06A22B8C866304D79A1AFABB2EA81295B
:103CD000C72DB5FE9004836987818A221D3A480268
:103CE0005D96DAEEC458F6095F69261A26EA473B64
:103CF000987A41C399C40876884DD3ECA57D9C3F42
:103D0000A1EBD9F887ED793CCB602133B0B4A7B9EA
:103D1000DF3CD04944B546262C14DDCB9E95079553
:103D2000F70095AFC93EB03EF51D17CE06609BFD6E
:103D3000D10BD8664BED35D0AB6E1E98C09A815C26
:103D4000946E87E942639467153982C4E205195E6F
:103D5000A87ED2F46584CDCE3BF2102CC4A502EC33
:103D6000B2CD2780AB731D10644BD8EBFCBC1A346A
:103D70009B2E36C94B9305771638295D61CE819EFF
:103D800088B4ED4BBB87438F19EC921C0B9D96D6E4
:103D9000E2B27BBFB432D62373D9E104502CF7C80A
:103DA0004FBB50222BB6FE3E6CB42730C7BF849E5B
:103DB000B6A31BAD5878392A8B6DB2FA47D85CC4CC
:103DC0003E7BCADCB2194573963A11FEE83ADEE34F
:103DD0004E988C6BEF7D23E4958B131600E9A8E8D1
:103DE0008D8CD15308C71288CE16C65D27279AFE40
:103DF000904A2B2A6FED40313630A945545030EFB0
:103E0000EFFFE3C89501BE0FE50DBF04E00EBFAAAA
:103E100024AFBC05E00EBD03E004BB01EC05BB0014
:103E2000E601BB02BB57E06DEE7CE78AE9A0BC0966
:103E3000E109B9ABB808E10AB906E800BD93E204AC
:103E4000E6C02E05E1D02EBB2403B3007C0030D1A8
:103E5000F0EE27FF27AA27BB27CC270590A00DBA95
:103E60001DC025FD33D1F7E03FC1F705900C1605C5
:103E7000900A06C8950B0631F40C94530A01E10729
:103E8000BFE895BDCF03E40CB98BD024EB43E431FC
:103E9000E000C05F990CC08DD0E1F7A2B3B0E6ABF3
:103EA00027A2BB2A9509F4D4CF4CB97AD0F2CF0C13
:103EB000B1013041F0043069F706E00CB971D079F6
:103EC000D0F1F7DCCF433411F445E12AE0A0E0B3B0
:103ED000E067D000C05F9906C06CD0E1F705E10C47
:103EE000B95FD0D7CF5DD00CB10D93A43899F7024C
:103EF000E8E2E0F3E067D0AB2B89F7009100030321
:103F00001751F00395031304C006E00CB949D0C162
:103F1000CF08E10CB9B3CFEE27F0910003FA95F684
:103F200095E795EF0103E007BFE89507B700FDFDB2
:103F3000CFA2E0B3E010E80C9102BB0827BB203908
:103F4000F4E02E0527015409279E2DB3940FC0B12C
:103F5000FC07C0E02E062702950C25CE2CB3940654
:103F6000C0E02E072700950D25DE2CBB240D931AEB
:103F70009511F701E010E4A2E0B3E00D901D900769
:103F8000BFE89532961A95C9F7FE0105E007BFE82C
:103F90009507B700FDFDCF339506E00CB901D07948
:103FA000CF0F9301EE0DBD0BE70CBD04E008BF0F72
:103FB0009108950F931F9308B714E0012301271F61
:103FC000910F9108950F931F93CF93DF93A0E0B0CB
:103FD000E0C1E2D0E11191B12718E0AA0FBB1F1098
:103FE000F4AC27BD271A95C9F70A95A1F7DF91CF41
:103FF000911F910F91089563284529505401ABAE4C
:00000001FF
